{
  "contractName": "A",
  "abi": [
    {
      "inputs": [],
      "payable": false,
      "stateMutability": "nonpayable",
      "type": "constructor"
    },
    {
      "anonymous": false,
      "inputs": [
        {
          "indexed": false,
          "internalType": "address",
          "name": "a",
          "type": "address"
        }
      ],
      "name": "subcontract",
      "type": "event"
    },
    {
      "constant": true,
      "inputs": [
        {
          "internalType": "uint256",
          "name": "",
          "type": "uint256"
        }
      ],
      "name": "contracts2",
      "outputs": [
        {
          "internalType": "address",
          "name": "",
          "type": "address"
        }
      ],
      "payable": false,
      "stateMutability": "view",
      "type": "function"
    },
    {
      "constant": false,
      "inputs": [],
      "name": "createB",
      "outputs": [],
      "payable": false,
      "stateMutability": "nonpayable",
      "type": "function"
    }
  ],
  "bytecode": "0x608060405234801561001057600080fd5b5061001f61002460201b60201c565b61020c565b60006040516100329061015d565b604051809103906000f08015801561004e573d6000803e3d6000fd5b5090508073ffffffffffffffffffffffffffffffffffffffff16635524107760056040518263ffffffff1660e01b815260040161008b91906101a3565b600060405180830381600087803b1580156100a557600080fd5b505af11580156100b9573d6000803e3d6000fd5b5050505060008190806001815401808255809150509060018203906000526020600020016000909192909190916101000a81548173ffffffffffffffffffffffffffffffffffffffff021916908373ffffffffffffffffffffffffffffffffffffffff160217905550507fced4cf5a064c9db6e2100fc3166bb235d56bdc132e3d393d48b76fb1d0d3d442816040516101529190610188565b60405180910390a150565b6101aa806106f683390190565b610173816101be565b82525050565b610182816101fa565b82525050565b600060208201905061019d600083018461016a565b92915050565b60006020820190506101b86000830184610179565b92915050565b60006101c9826101d0565b9050919050565b600073ffffffffffffffffffffffffffffffffffffffff82169050919050565b6000819050919050565b6000610205826101f0565b9050919050565b6104db8061021b6000396000f3fe608060405234801561001057600080fd5b50600436106100365760003560e01c8063c39ebf991461003b578063dbdc275d1461006b575b600080fd5b6100556004803603610050919081019061020c565b610075565b6040516100629190610253565b60405180910390f35b6100736100b1565b005b6000818154811061008257fe5b906000526020600020016000915054906101000a900473ffffffffffffffffffffffffffffffffffffffff1681565b60006040516100bf906101ea565b604051809103906000f0801580156100db573d6000803e3d6000fd5b5090508073ffffffffffffffffffffffffffffffffffffffff16635524107760056040518263ffffffff1660e01b8152600401610118919061026e565b600060405180830381600087803b15801561013257600080fd5b505af1158015610146573d6000803e3d6000fd5b5050505060008190806001815401808255809150509060018203906000526020600020016000909192909190916101000a81548173ffffffffffffffffffffffffffffffffffffffff021916908373ffffffffffffffffffffffffffffffffffffffff160217905550507fced4cf5a064c9db6e2100fc3166bb235d56bdc132e3d393d48b76fb1d0d3d442816040516101df9190610253565b60405180910390a150565b6101aa806102ef83390190565b600081359050610206816102d7565b92915050565b60006020828403121561021e57600080fd5b600061022c848285016101f7565b91505092915050565b61023e81610289565b82525050565b61024d816102c5565b82525050565b60006020820190506102686000830184610235565b92915050565b60006020820190506102836000830184610244565b92915050565b60006102948261029b565b9050919050565b600073ffffffffffffffffffffffffffffffffffffffff82169050919050565b6000819050919050565b60006102d0826102bb565b9050919050565b6102e0816102bb565b81146102eb57600080fd5b5056fe608060405234801561001057600080fd5b5060008081905550610183806100276000396000f3fe608060405234801561001057600080fd5b50600436106100415760003560e01c806320965255146100465780633fa4f245146100645780635524107714610082575b600080fd5b61004e61009e565b60405161005b9190610104565b60405180910390f35b61006c6100a7565b6040516100799190610104565b60405180910390f35b61009c600480360361009791908101906100cc565b6100ad565b005b60008054905090565b60005481565b8060008190555050565b6000813590506100c681610129565b92915050565b6000602082840312156100de57600080fd5b60006100ec848285016100b7565b91505092915050565b6100fe8161011f565b82525050565b600060208201905061011960008301846100f5565b92915050565b6000819050919050565b6101328161011f565b811461013d57600080fd5b5056fea365627a7a72315820767cb43bb3ffa20ff5e9699f30c8485ab76cb4700840bf7b3e80eacdc664e7c76c6578706572696d656e74616cf564736f6c63430005100040a365627a7a723158206784712aca89359cf32bb59dfc9d2feb3f69e0eef4277bbbb20e026e340709926c6578706572696d656e74616cf564736f6c63430005100040608060405234801561001057600080fd5b5060008081905550610183806100276000396000f3fe608060405234801561001057600080fd5b50600436106100415760003560e01c806320965255146100465780633fa4f245146100645780635524107714610082575b600080fd5b61004e61009e565b60405161005b9190610104565b60405180910390f35b61006c6100a7565b6040516100799190610104565b60405180910390f35b61009c600480360361009791908101906100cc565b6100ad565b005b60008054905090565b60005481565b8060008190555050565b6000813590506100c681610129565b92915050565b6000602082840312156100de57600080fd5b60006100ec848285016100b7565b91505092915050565b6100fe8161011f565b82525050565b600060208201905061011960008301846100f5565b92915050565b6000819050919050565b6101328161011f565b811461013d57600080fd5b5056fea365627a7a72315820767cb43bb3ffa20ff5e9699f30c8485ab76cb4700840bf7b3e80eacdc664e7c76c6578706572696d656e74616cf564736f6c63430005100040",
  "source": "pragma solidity ^0.5.0;\npragma experimental ABIEncoderV2;\n\nimport \"../contracts/B.sol\";\n\ncontract A\n{\n\n  address[] public contracts2;\n  event subcontract (address a);\n\n  constructor() public {\n    createB();\n  }\n\n  function createB() public\n    {\n        B contractB = new B();\n        contractB.setValue(5);\n        contracts2.push(address(contractB));\n        emit subcontract(address(contractB));\n    }\n\n}\n",
  "sourcePath": "/Users/jeremyclark/Desktop/ECTRUFFLE10/contracts/A.sol",
  "compiler": {
    "name": "solc",
    "version": "0.5.16+commit.9c3226ce.Emscripten.clang"
  },
  "schemaVersion": "3.2.0",
  "updatedAt": "2020-11-24T17:24:51.128Z",
  "devdoc": {
    "methods": {}
  },
  "userdoc": {
    "methods": {}
  }
}