{
  "contractName": "B",
  "abi": [
    {
      "inputs": [],
      "payable": false,
      "stateMutability": "nonpayable",
      "type": "constructor"
    },
    {
      "constant": true,
      "inputs": [],
      "name": "value",
      "outputs": [
        {
          "internalType": "uint256",
          "name": "",
          "type": "uint256"
        }
      ],
      "payable": false,
      "stateMutability": "view",
      "type": "function"
    },
    {
      "constant": false,
      "inputs": [
        {
          "internalType": "uint256",
          "name": "a",
          "type": "uint256"
        }
      ],
      "name": "setValue",
      "outputs": [],
      "payable": false,
      "stateMutability": "nonpayable",
      "type": "function"
    },
    {
      "constant": true,
      "inputs": [],
      "name": "getValue",
      "outputs": [
        {
          "internalType": "uint256",
          "name": "",
          "type": "uint256"
        }
      ],
      "payable": false,
      "stateMutability": "view",
      "type": "function"
    }
  ],
  "bytecode": "0x608060405234801561001057600080fd5b5060008081905550610183806100276000396000f3fe608060405234801561001057600080fd5b50600436106100415760003560e01c806320965255146100465780633fa4f245146100645780635524107714610082575b600080fd5b61004e61009e565b60405161005b9190610104565b60405180910390f35b61006c6100a7565b6040516100799190610104565b60405180910390f35b61009c600480360361009791908101906100cc565b6100ad565b005b60008054905090565b60005481565b8060008190555050565b6000813590506100c681610129565b92915050565b6000602082840312156100de57600080fd5b60006100ec848285016100b7565b91505092915050565b6100fe8161011f565b82525050565b600060208201905061011960008301846100f5565b92915050565b6000819050919050565b6101328161011f565b811461013d57600080fd5b5056fea365627a7a72315820767cb43bb3ffa20ff5e9699f30c8485ab76cb4700840bf7b3e80eacdc664e7c76c6578706572696d656e74616cf564736f6c63430005100040",
  "source": "\npragma solidity ^0.5.0;\npragma experimental ABIEncoderV2;\n\n\n contract B{\n\n    uint256 public value;\n    constructor() public\n    {\n        value = 0;\n    }\n\n    function setValue(uint256 a) public\n    {\n        value = a;\n    }\n\n    function getValue() public view returns(uint256)\n    {\n        return value;\n    }\n}\n",
  "sourcePath": "/Users/jeremyclark/Desktop/ECTRUFFLE10/contracts/B.sol",
  "compiler": {
    "name": "solc",
    "version": "0.5.16+commit.9c3226ce.Emscripten.clang"
  },
  "schemaVersion": "3.2.0",
  "updatedAt": "2020-11-24T17:24:51.134Z",
  "devdoc": {
    "methods": {}
  },
  "userdoc": {
    "methods": {}
  }
}